2f7e39
LTC TESTNET A5A1E0 1454.64322 20180604_155843 0 LT=1320969600
0200000004292425590a87cde7e792b037cdfa5b11291cf51ff793e25ec67a5f70c412819c0600000000fdffffff63d0a42d4e2db165ec6641183ddcb96cf748ecd554f297f6892cb7f810d287320200000000ffffffff3d78e233f525adb7b7837bb9418e9953d4e876a27f7bf3615636d676f34d63e60000000000ffffffff71a42d65b540388a8c86efdd2aed088f9679221818bce04c1274afb8ab2850f90000000000ffffffff064182feaaf5000000160014ef1f1d517f22cdb3b2f190e541f9ee4f0fee7ebb7051418c0700000017a9143e6e40ced5782c16af3be7703c0214b5d6a44db28758b28d2506000000160014520b41a6e036145eed6fdcc766d4689f95fe83877030af26020000001976a9147e69822fdbbaa6111645c47d1a1ba8ab7cfefe8188ac90ab8dd80d0000001976a91424111860d733eeaa50f1cf3392e5ebbe2337ba2f88ac08884d2d0400000017a914e0fedc90ca538b79ed27a7b21eb31a561b39d61d878065bc4e
[{'confs': 2873446, 'mmid': '98831F3A:B:1', 'vout': 6, 'sequence': 4294967293, 'label': u'Healthcare', 'scriptPubKey': '0014520b41a6e036145eed6fdcc766d4689f95fe8387', 'txid': '9c8112c4705f7ac65ee293f71ff51c29115bfacd37b092e7e7cd870a59252429', 'amt': '1122.1400282', 'addr': 'tltc1q2g95rfhqxc29amt0mnrkd4rgn72laqu83yq2ee'}, {'confs': 4292343, 'mmid': '98831F3A:C:1', 'vout': 2, 'txid': '3287d210f8b72c89f697f254d5ec48f76cb9dc3d184166ec65b12d4e2da4d063', 'scriptPubKey': '76a91424111860d733eeaa50f1cf3392e5ebbe2337ba2f88ac', 'label': u'\u6240\u4ee5\uff0c\u6211\u5011\u975e\u5e38\u9700\u8981\u9019\u6a23\u4e00\u7a2e\u96fb\u5b50\u652f\u4ed8\u7cfb\u7d71\uff0c\u5b83\u57fa\u65bc\u5bc6\u78bc\u5b78\u539f\u7406\u800c\u4e0d\u57fa\u65bc\u4fe1\u7528\uff0c\u4f7f\u5f97\u4efb\u4f55\u9054', 'amt': '2516.83102913', 'addr': 'miof6ksLJu62rtz94Nw4yUBLgNT3FURHze'}, {'confs': 1442298, 'mmid': '98831F3A:L:1', 'vout': 0, 'txid': 'e6634df376d6365661f37b7fa276e8d453998e41b97b83b7b7ad25f533e2783d', 'scriptPubKey': '76a9147e69822fdbbaa6111645c47d1a1ba8ab7cfefe8188ac', 'label': u'Travel expenses', 'amt': '4028.5102425', 'addr': 'ms3Mq5yzTXPqZQPY3pde39G1nkH5nsgomA'}, {'confs': 2448042, 'mmid': '98831F3A:S:1', 'vout': 0, 'txid': 'f95028abb8af74124ce0bc18182279968f08ed2addef868c8a3840b5652da471', 'scriptPubKey': 'a9143e6e40ced5782c16af3be7703c0214b5d6a44db287', 'label': u"Carl's capital", 'amt': '4338.52985746', 'addr': 'QSJ65iUid3zCQ7G13oAiQjHjEho7KCBv4x'}]
[{'mmid': '98831F3A:C:1', 'amt': '594.67738', 'addr': 'miof6ksLJu62rtz94Nw4yUBLgNT3FURHze'}, {'addr': 'Qh7enMxmvLpYmmuhdYQyhZMaCBsZUSk3xy', 'amt': '179.39925'}, {'is_chg': True, 'addr': 'tltc1qau0365tlytxm8vh3jrj5r70wfu87ul4mczvjhv', 'amt': '10551.35793729', 'mmid': '98831F3A:B:2'}, {'mmid': '98831F3A:B:1', 'amt': '263.99847', 'addr': 'tltc1q2g95rfhqxc29amt0mnrkd4rgn72laqu83yq2ee'}, {'mmid': '98831F3A:L:1', 'amt': '92.3895', 'addr': 'ms3Mq5yzTXPqZQPY3pde39G1nkH5nsgomA'}, {'mmid': '98831F3A:S:1', 'amt': '324.17862', 'addr': 'QSJ65iUid3zCQ7G13oAiQjHjEho7KCBv4x'}]
TvwWgaAnrkQFpAxxjBa4PHvJ8NsJDsurtiv2HuzdnXWjQmY7LHyt6PZn5J7BNtB5VzHtBG7bUosCAMFon8yxUe2mYTZoH9e6dpoAz9E6JDZtUNYz9YnF1Z3jFND1X89RuKAk6YVBrfWseeyHR8vZDdaFzBPK5SPos
