eef89c
LTC MAINNET AF3CDF 620.76194 20180604_160219 0 LT=1320969600
020000000455cff6944c64a4436998fde661cc932689b4ca781e385405c120c43a670adaa50400000000fdffffffba62389cc7b4c4e2921813107bae22e94986dcc014e53fe74e925719fd4f9abc0700000000ffffffff7378c4a495a331117c554eeea457dee30e6c7ae527b0ec5b2149032b4d34785b0000000000ffffffff848797babb6d7ca0370ddd87c23b5869bc938a25ac8acf0d564d1aff3f884aea0600000000ffffffff06287cf5e7000000001600146b100808b5bad4ff8ce925a8cf4ce7adf850f9a798785db50400000017a91497acf666b7e19a579393ff2aed12e4bfeb13e5e18760cf9601010000001976a9141dec6649620b2a9979113c6c051e2a536fa14d4588ac980af8c60200000017a914b9fb1a947913903086e1651f03d565f332022da18718be250e050000001976a914cb4067ff77f8133dc20790c702a994006a2f956c88ac5c4a7d6228010000160014af15f1284a8e346ed6ecfe7d8804d279e80ef1e48065bc4e
[{'confs': 6245914, 'mmid': '98831F3A:B:1', 'vout': 4, 'sequence': 4294967293, 'label': u"Carl's capital", 'scriptPubKey': '00146b100808b5bad4ff8ce925a8cf4ce7adf850f9a7', 'txid': 'a5da0a673ac420c10554381e78cab4892693cc61e6fd986943a4644c94f6cf55', 'amt': '1951.30288153', 'addr': 'ltc1qdvgqsz94ht20lr8fyk5v7n884hu9p7d8k9easu'}, {'confs': 7886534, 'mmid': '98831F3A:C:1', 'vout': 7, 'txid': 'bc9a4ffd1957924ee73fe514c0dc8649e922ae7b10131892e2c4b4c79c3862ba', 'scriptPubKey': '76a914cb4067ff77f8133dc20790c702a994006a2f956c88ac', 'label': u'\u6240\u4ee5\uff0c\u6211\u5011\u975e\u5e38\u9700\u8981\u9019\u6a23\u4e00\u7a2e\u96fb\u5b50\u652f\u4ed8\u7cfb\u7d71\uff0c\u5b83\u57fa\u65bc\u5bc6\u78bc\u5b78\u539f\u7406\u800c\u4e0d\u57fa\u65bc\u4fe1\u7528\uff0c\u4f7f\u5f97\u4efb\u4f55\u9054', 'amt': '3877.54189259', 'addr': 'LdkebBKVXSs6NNoPJWGM8KciDnL8LhXXjb'}, {'confs': 5175326, 'mmid': '98831F3A:L:1', 'vout': 0, 'txid': '5b78344d2b0349215becb027e57a6c0ee3de57a4ee4e557c1131a395a4c47873', 'scriptPubKey': '76a9141dec6649620b2a9979113c6c051e2a536fa14d4588ac', 'label': u'House purchase', 'amt': '4734.38345591', 'addr': 'LMxB474SVfxeYdqxNrM1WZDZMnifteSMv1'}, {'confs': 5649429, 'mmid': '98831F3A:S:1', 'vout': 6, 'txid': 'ea4a883fff1a4d560dcf8aac258a93bc69583bc287dd0d37a07c6dbbba978784', 'scriptPubKey': 'a914b9fb1a947913903086e1651f03d565f332022da187', 'label': u"Alice's allowance", 'amt': '2787.17068817', 'addr': 'MQrY3vEbqKMBgegXrSaR93R2HoTDE5bKrY'}]
[{'mmid': '98831F3A:L:1', 'amt': '43.21628', 'addr': 'LMxB474SVfxeYdqxNrM1WZDZMnifteSMv1'}, {'mmid': '98831F3A:C:1', 'amt': '217.12191', 'addr': 'LdkebBKVXSs6NNoPJWGM8KciDnL8LhXXjb'}, {'is_chg': True, 'addr': 'ltc1q4u2lz2z23c6xa4hvle7cspxj085qau0ywut87w', 'amt': '12729.6269782', 'mmid': '98831F3A:B:2'}, {'addr': 'MMj9U3PtKa52nvQE1dRJdpdgDsyCkZSQbD', 'amt': '202.22671'}, {'mmid': '98831F3A:S:1', 'amt': '119.28079', 'addr': 'MQrY3vEbqKMBgegXrSaR93R2HoTDE5bKrY'}, {'mmid': '98831F3A:B:1', 'amt': '38.91625', 'addr': 'ltc1qdvgqsz94ht20lr8fyk5v7n884hu9p7d8k9easu'}]
TvwWgaAnrkQFpAxxjBa4PHvJ8NsJDsurtiv2HuzdnXWjQmY7LHyt6PZn5J7BNtB5VzHtBG7bUosCAMFon8yxUe2mYTZoH9e6dpoAz9E6JDZtUNYz9YnF1Z3jFND1X89RuKAk6YVBrfWseeyHR8vZDdaFzBPK5SPos
