89d20a
MAINNET 0B8D5A 15.31789 20180604_141855 0 LT=1320969600
0200000004ce07f59ca3cc178edfa4c3b4eaad2cdcbfe5e686e083f3fad61e11d9a92325280000000000fdffffff4054da7ad12da31202b7dfd3802c8a6f29d19653addf058f8903303e99cb0eab0500000000fffffffff921871cba2a535a7b8df130096dc3b39d833db11925dfa56452baf8b00182cb0600000000ffffffff3d83031aed02ebdf1852d2e17b77997d18b4bdacedc579391e21c3e36117d0f00700000000ffffffff06f0e9631c0000000017a914345eb1bb2c8463a6be79d3eb33c8437fa3eb5fc487b0dbf307000000001976a914e082f38eb3733b935d07c1552fc939e05512056588acf90e090103000000160014daac6c62c4366b5a909231bbdc6d764bee262bdb008ae300000000001976a9149b1a59d1411e2678a707b371e8e805bbacdde32288acd872271f000000001600143c26c2d65a2d0a48a2c065516e3f1ba6f2384c3c507cea160000000017a9143239a010027d6365d5fa4b81a681b43e2d3817bb878065bc4e
[{'confs': 5237526, 'mmid': '98831F3A:B:1', 'vout': 0, 'sequence': 4294967293, 'label': u'\u6240\u4ee5\uff0c\u6211\u5011\u975e\u5e38\u9700\u8981\u9019\u6a23\u4e00\u7a2e\u96fb\u5b50\u652f\u4ed8\u7cfb\u7d71\uff0c\u5b83\u57fa\u65bc\u5bc6\u78bc\u5b78\u539f\u7406\u800c\u4e0d\u57fa\u65bc\u4fe1\u7528\uff0c\u4f7f\u5f97\u4efb\u4f55\u9054', 'scriptPubKey': '00143c26c2d65a2d0a48a2c065516e3f1ba6f2384c3c', 'txid': '282523a9d9111ed6faf383e086e6e5bfdc2cadeab4c3a4df8e17cca39cf507ce', 'amt': '24.5485321', 'addr': 'bc1q8snv94j6959y3gkqv4gku0cm5mersnpucsvw5z'}, {'confs': 5662786, 'mmid': '98831F3A:C:1', 'vout': 5, 'txid': 'ab0ecb993e3003898f05dfad5396d1296f8a2c80d3dfb70212a32dd17ada5440', 'scriptPubKey': '76a9149b1a59d1411e2678a707b371e8e805bbacdde32288ac', 'label': u'Rainy day', 'amt': '43.86958673', 'addr': '1F97Jd89wwmu4ELadesAdGDzg3d8Y6j5iP'}, {'confs': 6236658, 'mmid': '98831F3A:L:1', 'vout': 6, 'txid': 'cb8201b0f8ba5264a5df2519b13d839db3c36d0930f18d7b5a532aba1c8721f9', 'scriptPubKey': '76a914e082f38eb3733b935d07c1552fc939e05512056588ac', 'label': u'Real estate fund', 'amt': '42.4060708', 'addr': '1MU7EdgqYy9JX35L25hR6CmXXcSEBDAwyv'}, {'confs': 1396022, 'mmid': '98831F3A:S:1', 'vout': 7, 'txid': 'f0d01761e3c3211e3979c5edacbdb4187d99777be1d25218dfeb02ed1a03833d', 'scriptPubKey': 'a914345eb1bb2c8463a6be79d3eb33c8437fa3eb5fc487', 'label': u'Healthcare', 'amt': '33.51652798', 'addr': '36TvVzU5mxSjJ3D9qKAmYzCV7iUqtTDezF'}]
[{'mmid': '98831F3A:L:1', 'amt': '1.33422', 'addr': '1MU7EdgqYy9JX35L25hR6CmXXcSEBDAwyv'}, {'mmid': '98831F3A:S:1', 'amt': '4.7631', 'addr': '36TvVzU5mxSjJ3D9qKAmYzCV7iUqtTDezF'}, {'mmid': '98831F3A:C:1', 'amt': '0.14912', 'addr': '1F97Jd89wwmu4ELadesAdGDzg3d8Y6j5iP'}, {'mmid': '98831F3A:B:1', 'amt': '5.22679', 'addr': 'bc1q8snv94j6959y3gkqv4gku0cm5mersnpucsvw5z'}, {'is_chg': True, 'addr': 'bc1qm2kxcckyxe444yyjxxaacmtkf0hzv27mzkamms', 'amt': '129.02272761', 'mmid': '98831F3A:B:2'}, {'addr': '36Gak1PHQU4rszsWkyt9B2FhCda6xnt6y9', 'amt': '3.84466'}]
TvwWgaAnrkQFpAxxjBa4PHvJ8NsJDsurtiv2HuzdnXWjQmY7LHyt6PZn5J7BNtB5VzHtBG7bUosCAMFon8yxUe2mYTZoH9e6dpoAz9E6JDZtUNYz9YnF1Z3jFND1X89RuKAk6YVBrfWseeyHR8vZDdaFzBPK5SPos
