497388
TESTNET 0C7115 15.86255 20180604_142745 0 LT=1320969600
0200000004a74dbe8833976927a0b14a67ecf8a9293950fb472e8850cd7b4147d6692232020000000000fdffffff3fd6c9fbccb18d4879e88a7074f32846f8060ebc709c9c4c04bc40a5f8237eb80400000000ffffffff2842c9c26e72015af2c5017d15d416b3d9094f53334c31b2c14c3d756bd19acc0100000000ffffffff574141965cc7a4656fe31f196c5a69a99f3e0e986a3b2377e86f4fb0ad56cacc0500000000ffffffff06b0a596180000000017a914daaf772bc9d05b41f6811fa200a34fcd4d58ed2c879055251d000000001976a9141c95ba688637b1b8e792c494129c2a64931e19a588ac93a69c0b02000000160014b8b85bec8debbafa0160604b3b1339ccf7e00a1d209d60140000000017a91456bbd7fd28829edc29189dc6d68ce01d57b89e2e8728c4290d00000000160014ff496bbc2e661d6c39e0d1077af84b1849ff579710f84507000000001976a9146322b1e8ad2853c2ddd4f2a98bfe820d00ea2e4788ac8065bc4e
[{'confs': 8340835, 'mmid': '98831F3A:B:1', 'vout': 0, 'sequence': 4294967293, 'label': u'Healthcare', 'scriptPubKey': '0014ff496bbc2e661d6c39e0d1077af84b1849ff5797', 'txid': '02322269d647417bcd50882e47fb503929a9f8ec674ab1a02769973388be4da7', 'amt': '31.29656913', 'addr': 'tb1qlaykh0pwvcwkcw0q6yrh47ztrpyl74uhmlugth'}, {'confs': 7543247, 'mmid': '98831F3A:C:1', 'vout': 4, 'txid': 'b87e23f8a540bc044c9c9c70bc0e06f84628f374708ae879488db1ccfbc9d63f', 'scriptPubKey': '76a9146322b1e8ad2853c2ddd4f2a98bfe820d00ea2e4788ac', 'label': u'\u5fc5\u8981\u306a\u306e\u306f\u3001\u4fe1\u7528\u3067\u306f\u306a\u304f\u6697\u53f7\u5316\u3055\u308c\u305f\u8a3c\u660e\u306b\u57fa\u3065\u304f\u96fb\u5b50\u53d6\u5f15\u30b7\u30b9\u30c6\u30e0\u3067\u3042\u308a\u3001\u3053\u308c\u306b\u3088', 'amt': '23.12036572', 'addr': 'mpZ8kh9mkns4B1Q9RzthXiU5d2RgYnV25Y'}, {'confs': 7864144, 'mmid': '98831F3A:L:1', 'vout': 1, 'txid': 'cc9ad16b753d4cc1b2314c33534f09d9b316d4157d01c5f25a01726ec2c94228', 'scriptPubKey': '76a9141c95ba688637b1b8e792c494129c2a64931e19a588ac', 'label': u"Bob's bequest", 'amt': '25.16213303', 'addr': 'mi86aiiSXZQKPrig8Ti66rhXSoAt6seSSi'}, {'confs': 6843189, 'mmid': '98831F3A:S:1', 'vout': 5, 'txid': 'ccca56adb04f6fe877233b6a980e3e9fa9695a6c191fe36f65a4c75c96414157', 'scriptPubKey': 'a914daaf772bc9d05b41f6811fa200a34fcd4d58ed2c87', 'label': u"Eddie's endowment", 'amt': '24.13108439', 'addr': '2NDBXVfG7uUDwrZPyEZPc8vRMyZN4dfPoY7'}]
[{'is_chg': True, 'addr': 'tb1qhzu9hmydawa05qtqvp9nkyeeenm7qzsak7et5g', 'amt': '87.84750227', 'mmid': '98831F3A:B:2'}, {'mmid': '98831F3A:B:1', 'amt': '2.20841', 'addr': 'tb1qlaykh0pwvcwkcw0q6yrh47ztrpyl74uhmlugth'}, {'mmid': '98831F3A:C:1', 'amt': '1.22026', 'addr': 'mpZ8kh9mkns4B1Q9RzthXiU5d2RgYnV25Y'}, {'addr': '2N19q8PdJ1EHHUmSYzcjUfkJuJVMzghA4tL', 'amt': '3.41876'}, {'mmid': '98831F3A:L:1', 'amt': '4.88986', 'addr': 'mi86aiiSXZQKPrig8Ti66rhXSoAt6seSSi'}, {'mmid': '98831F3A:S:1', 'amt': '4.12526', 'addr': '2NDBXVfG7uUDwrZPyEZPc8vRMyZN4dfPoY7'}]
TvwWgaAnrkQFpAxxjBa4PHvJ8NsJDsurtiv2HuzdnXWjQmY7LHyt6PZn5J7BNtB5VzHtBG7bUosCAMFon8yxUe2mYTZoH9e6dpoAz9E6JDZtUNYz9YnF1Z3jFND1X89RuKAk6YVBrfWseeyHR8vZDdaFzBPK5SPos
