16ed33
BCH TESTNET 359FD5 6.68868 20180604_154119 0 LT=1320969600
02000000022dc70865a629c6728d3cdce6abb3d84daa45b4a494bbff27c6379fb2d0abc49e0600000000feffffff3657fdf0f992064faaaae5dbfc7a14679a3a40219a392e5cebae8ae47fb72c650000000000ffffffff04b0862d19000000001976a9146322b1e8ad2853c2ddd4f2a98bfe820d00ea2e4788ac68f20c07000000001976a914904b67202d7b6a28eac98d963e6d936597aee04988ac88a4a307000000001976a9141c95ba688637b1b8e792c494129c2a64931e19a588acddc508a6010000001976a9144daf4fa0c3b1ea8ac4d7e29b45832cf64e47dfa188ac8065bc4e
[{'confs': 7716577, 'mmid': '98831F3A:C:1', 'vout': 6, 'sequence': 4294967294, 'label': u'\u6240\u4ee5\uff0c\u6211\u5011\u975e\u5e38\u9700\u8981\u9019\u6a23\u4e00\u7a2e\u96fb\u5b50\u652f\u4ed8\u7cfb\u7d71\uff0c\u5b83\u57fa\u65bc\u5bc6\u78bc\u5b78\u539f\u7406\u800c\u4e0d\u57fa\u65bc\u4fe1\u7528\uff0c\u4f7f\u5f97\u4efb\u4f55\u9054', 'scriptPubKey': '76a9146322b1e8ad2853c2ddd4f2a98bfe820d00ea2e4788ac', 'txid': '9ec4abd0b29f37c627ffbb94a4b445aa4dd8b3abe6dc3c8d72c629a66508c72d', 'amt': '42.97552312', 'addr': 'mpZ8kh9mkns4B1Q9RzthXiU5d2RgYnV25Y'}, {'confs': 4011798, 'mmid': '98831F3A:L:1', 'vout': 0, 'txid': '652cb77fe48aaeeb5c2e399a21403a9a67147afcdbe5aaaa4f0692f9f0fd5736', 'scriptPubKey': '76a9141c95ba688637b1b8e792c494129c2a64931e19a588ac', 'label': u'Emergency fund', 'amt': '34.51975781', 'addr': 'mi86aiiSXZQKPrig8Ti66rhXSoAt6seSSi'}]
[{'mmid': '98831F3A:L:1', 'amt': '1.28165', 'addr': 'mi86aiiSXZQKPrig8Ti66rhXSoAt6seSSi'}, {'addr': 'mtfuvkwXtXWmhAqb2b3q5dhcuCvfK2wKhw', 'amt': '1.18289'}, {'mmid': '98831F3A:C:1', 'amt': '4.22414', 'addr': 'mpZ8kh9mkns4B1Q9RzthXiU5d2RgYnV25Y'}, {'is_chg': True, 'addr': 'mnbiLeezPbyWUPkrVt8VbXAqrghYjtiJRp', 'amt': '70.80560093', 'mmid': '98831F3A:L:2'}]
TvwWgaAnrkQFpAxxjBa4PHvJ8NsJDsurtiv2HuzdnXWjQmY7LHyt6PZn5J7BNtB5VzHtBG7bUosCAMFon8yxUe2mYTZoH9e6dpoAz9E6JDZtUNYz9YnF1Z3jFND1X89RuKAk6YVBrfWseeyHR8vZDdaFzBPK5SPos
