f710e6
BCH MAINNET 460D4D 10.19764 20180604_154621 0 LT=1320969600
02000000022af6fe4154073432151399a56741a25ad012f26a6413a49d6066a93ae8139c230300000000feffffff35cc12f21a64aff906fee4d711feccb0e1f3bb9e03763bc86a0549debf9503560200000000ffffffff04f8d8411a000000001976a9149b1a59d1411e2678a707b371e8e805bbacdde32288ac00d34a14000000001976a914c1c3574c5ac14ec935d9b89e569fc8c7f60854fc88acc35c18d7010000001976a914abe58e1e45f6176910a4c1ac1ee62328d5cc4fd588ac28b13b0e000000001976a914e082f38eb3733b935d07c1552fc939e05512056588ac8065bc4e
[{'confs': 4919901, 'mmid': '98831F3A:C:1', 'vout': 3, 'sequence': 4294967294, 'label': u'\u6240\u4ee5\uff0c\u6211\u5011\u975e\u5e38\u9700\u8981\u9019\u6a23\u4e00\u7a2e\u96fb\u5b50\u652f\u4ed8\u7cfb\u7d71\uff0c\u5b83\u57fa\u65bc\u5bc6\u78bc\u5b78\u539f\u7406\u800c\u4e0d\u57fa\u65bc\u4fe1\u7528\uff0c\u4f7f\u5f97\u4efb\u4f55\u9054', 'scriptPubKey': '76a9149b1a59d1411e2678a707b371e8e805bbacdde32288ac', 'txid': '239c13e83aa966609da413646af212d05aa24167a59913153234075441fef62a', 'amt': '39.835815', 'addr': '1F97Jd89wwmu4ELadesAdGDzg3d8Y6j5iP'}, {'confs': 3014433, 'mmid': '98831F3A:L:1', 'vout': 2, 'txid': '560395bfde49056ac83b76039ebbf3e1b0ccfe11d7e4fe06f9af641af212cc35', 'scriptPubKey': '76a914e082f38eb3733b935d07c1552fc939e05512056588ac', 'label': u'Real estate fund', 'amt': '49.39947847', 'addr': '1MU7EdgqYy9JX35L25hR6CmXXcSEBDAwyv'}]
[{'addr': '1JfXRZAMvgTn2YpsgpxSh49HWuXvPguEJH', 'amt': '3.40448'}, {'mmid': '98831F3A:L:1', 'amt': '2.38793', 'addr': '1MU7EdgqYy9JX35L25hR6CmXXcSEBDAwyv'}, {'mmid': '98831F3A:C:1', 'amt': '4.40523', 'addr': '1F97Jd89wwmu4ELadesAdGDzg3d8Y6j5iP'}, {'is_chg': True, 'addr': '1GfuYaKHrhdiVybXMGCcjadSgfjvpdt2x9', 'amt': '79.03665347', 'mmid': '98831F3A:L:2'}]
TvwWgaAnrkQFpAxxjBa4PHvJ8NsJDsurtiv2HuzdnXWjQmY7LHyt6PZn5J7BNtB5VzHtBG7bUosCAMFon8yxUe2mYTZoH9e6dpoAz9E6JDZtUNYz9YnF1Z3jFND1X89RuKAk6YVBrfWseeyHR8vZDdaFzBPK5SPos
